:03020000020206F1
:03025F0002020395
:03020300021F389F
:0400000002020032C6
:01000B0032C2
:0100130032BA
:01001B0032B2
:0100230032AA
:01002B0032A2
:01003300329A
:01003B003292
:01004300328A
:01004B003282
:01005300327A
:01005B003272
:01006300326A
:0101000032CC
:0101040032C8
:0101080032C4
:01010C0032C0
:0101100032BC
:0101140032B8
:0101180032B4
:0101200032AC
:0101240032A8
:0101280032A4
:01012C0032A0
:01013000329C
:010134003298
:010138003294
:01013C003290
:01014000328C
:010148003284
:01014C003280
:01015000327C
:010154003278
:010158003274
:01015C003270
:01016000326C
:01017000325C
:010174003258
:010178003254
:01017C003250
:01018000324C
:010184003248
:010188003244
:01018C003240
:01019000323C
:010194003238
:010198003234
:01019C003230
:0101A000322C
:0101A8003224
:0101AC003220
:0101B000321C
:0101B4003218
:0101B8003214
:2002620022AE82AF837C007D00C3EC9EED9F50147AB07B041ABAFF011BEA4B70F70CBC00C6
:20028200E80D80E522AE82AF837C007D00C3EC9EED9F50147A0A7B001ABAFF011BEA4B70B5
:2002A200F70CBC00E80D80E52275AF0790E67BE090E67CF0DAF32222C28700000000D28176
:2002C20000000000C28122D28700000000D28100000000C2812290E6BAE0F5A00000000001
:2002E200D28300000000C2832275B28B75B30075B40F75B50075A000D280C28190E6A3E061
:2003020054FEF090E6A5E0FF54FEF090E60174E3F00000000090E60B7401F0000000009029
:20032200E6047480F00000000090E6047402F00000000090E604E4F00000000090E60474D1
:2003420006F00000000090E604E4F00000000090E6187401F00000000090E6187409F00069
:2003620000000090E6207402F00000000090E621E4F00000000090E61A7401F0000000001F
:2003820090E61A7411F00000000090E609E4F00000000090E60274CAF000000000900002CB
:2003A200120263C280227F00BFFF00500B90E678E0FE20E0030F80F090E678E0FF20E204A7
:2003C200EF20E10B90E678E04440F075820122758200227F00BFFF00500B90E678E0FE2027
:2003E200E0030F80F090E678E0FF30E20B90E678E04440F075820122758200227F0090E645
:2004020078E0FE20E204758200220FBFFF0040EE758201227F0090E678E0FE20E604758204
:2004220000220FBFFF0040EE75820122AF82C3E49508E433FE90E678E04480F0C007C006EA
:200442001203FED006D00790E679EFF0C007C0061203A8E582D006D0077012E509600A9044
:20046200E678E04440F012041675820022EE601090000AC007C006120287D006D00780B581
:20048200E509600890E678E0FF4440F075820122AE82AF837D00E50C7003F58222750864EC
:2004A2007509007582A2C007C006C00512042EE582D005D006D0076003020599AC0B90E674
:2004C20079ECF0C007C006C0051203A8E582D005D006D007600302059990E679E50AF0C03C
:2004E20007C006C0051203A8E582D005D006D007600302059990E678E04440F0C007C006F0
:20050200C00512041690E678E04480F01203FE90E67974A3F01203A8E582D005D006D007B7
:20052200707590E679E08E828F83F0C007C006C0051203D5E582D005D006D0077059FCC346
:20054200EC950C502A90E679E08E828F83F0A3AE82AF83C007C006C005C0041203D5E58245
:20056200D004D005D006D007702D0C8C0580D090E678E04420F090E679E0C0051203D5E514
:2005820082D005701290E678E04440F090E679E0C005120416D0058D8222AE82AF837D0099
:2005A200E50F7003F582227508647509007582A2C007C006C00512042EE582D005D006D0C9
:2005C20007600302065EAC0E90E679ECF0C007C006C0051203A8E582D005D006D007600369
:2005E20002065E90E679E50DF0C007C006C0051203A8E582D005D006D0077060FCC3EC95BA
:200602000F504B8E828F83E090E679F08E828F83E0FBA3AE82AF83903A04E0FAEB2AF0900E
:200622003A02E0FAA3E0FB903A0274012AF0E43BA3F0C007C006C005C0041203A8E582D00D
:2006420004D005D006D00770130C8C0580AF90E678E04440F0C005120416D0058D822290FA
:200662003A30E0FF903A00E0F50AA3E0F50B8F0C90E740C007120492AE82D0077D00903AF4
:2006820000E0FBA3E0FC903A00EF2BF0ED3CA3F08E8222AF82903A00E0F50DA3E0F50E8F4A
:2006A2000F90E740C00712059CD0077E00903A00E0FCA3E0FD903A00EF2CF0EE3DA3F022C8
:2006C200AE82AF837D00E5117003F582227508647509007582A6C007C006C00512042EE5C0
:2006E20082D005D006D00760030207AC90E679E510F0C007C006C0051203A8E582D005D0ED
:2007020006D00760030207AC90E678E04440F0C007C006C00512041690E678E04480F0128E
:2007220003FE90E67974A7F01203A8E582D005D006D007707590E679E08E828F83F0C00789
:20074200C006C0051203D5E582D005D006D0077059FCC3EC9511502A90E679E08E828F83B4
:20076200F0A3AE82AF83C007C006C005C0041203D5E582D004D005D006D007702D0C8C058B
:2007820080D090E678E04420F090E679E0C0051203D5E582D005701290E678E04440F090D7
:2007A200E679E0C005120416D0058D8222AE82AF837D00E5137003F58222750864750900BF
:2007C2007582A6C007C006C00512042EE582D005D006D007600302089E90E679E512F0C05A
:2007E20007C006C0051203A8E582D005D006D007600302089EAC127B00C3EB9513400302E0
:2008020008908E828F83E0FAA3AE82AF8390E679EAF0C007C006C005C004C0031203A8E5F9
:2008220082D003D004D005D006D007706F0C8C120B8B05EC20E3C2C3EB951350BC90E678E6
:20084200E04440F0C007C006C005C004C0031204167508647509007582A612042EE582D0C6
:2008620003D004D005D006D007703190E679ECF0C007C006C005C004C0031203A8E582D0E4
:2008820003D004D005D006D00770110207FB90E678E04440F0C005120416D005903A05E5BC
:2008A20012F08D8222903A30E0FF903A05E0F5108F1190E740C0071206C2AE82D007903AAD
:2008C20005E0FDEF2DF08E8222AA82D2A6000000C2A6DAF722A2A4D2A633C2A6A2A4D2A6E0
:2008E20033C2A6A2A4D2A633C2A6A2A4D2A633C2A6A2A4D2A633C2A6A2A4D2A633C2A6A255
:20090200A4D2A633C2A6A2A4D2A633C2A6F5822275820022AA16A2A4D2A633C2A6A2A4D2E2
:20092200A633C2A6A2A4D2A633C2A6A2A4D2A633C2A6A2A4D2A633C2A6A2A4D2A633C2A610
:20094200A2A4D2A633C2A6A2A4D2A633C2A6F0A3DAC422E5823392A7D2A633C2A692A7D29F
:20096200A633C2A692A7D2A633C2A692A7D2A633C2A692A7D2A633C2A692A7D2A633C2A604
:2009820092A7D2A633C2A692A7D2A600C2A622AA16E03392A7D2A633C2A692A7D2A633C209
:2009A200A692A7D2A633C2A692A7D2A633C2A692A7D2A633C2A692A7D2A633C2A692A7D254
:2009C200A633C2A692A7D2A6A3C2A6DAC422D2A57582081208CBC2A522D2A57582080208F4
:2009E200CB903A137405F01209D07582051209557E007F00C007C0061208D7E582D006D005
:200A02000730E02E8E028F037C007D00C3EA94FFEB94FFEC9400ED648094805015758200F5
:200A2200C007C0061208CBD006D0070EBE00C50F80C21208D7E58230E0047F0280027F00C5
:200A4200903A0EEFF01209DB903A0EE0F58222AE82AF8320A50A903A0E7404F07582042208
:200A6200ADB474EF5DF5B443B4E0C007C0061209E3E582D006D0076007903A0EE0F582227C
:200A8200903A08E0FCA3E07D00EC24F8FCED34FFFD8CF005F08006EE2EFEEF33FFD5F0F797
:200AA200903A13740BF0C007C0061209D075820B120955D006D0078F82C007C00612095543
:200AC200D006D0078E821209557582001209557582081208CB75820022758200220209DB84
:200AE2001209DB903A1BE4F01209E3E5826007903A0EE0F58222903A137406F01209D07581
:200B020082061209551209DB903A137402F01209D0758202120955903A18E0A3E0F5821280
:200B22000955903A18E0FEA3E08E8212095575820012095575820022AF82903A1BE0FE60BE
:200B420012C007120AE2E582D0076007903A0EE0F582228F82120955903A1AE02401F090DC
:200B62003A1AE0FF7015903A18E02401F0A3E03400F01209DB903A1B7401F075820022AE36
:200B820082AF83903A1BE0FD6016C007C006120AE2E582D006D0076007903A0EE0F5822210
:200BA200903A1AE0FD700C8514168E828F831209918060EDF4FD0DE5146006C3ED951450A6
:200BC200488D168E828F83C007C006C005120991D005D006D007E514C39DF514903A18E062
:200BE2002401F0A3E03400F0903A1AE4F0ED2EFEE43FFFC007C006120AE2E582D006D007A5
:200C02006007903A0EE0F582228514168E828F83120991903A1AE0FFE5142FF0903A1AE0FE
:200C2200FF7015903A18E02401F0A3E03400F01209DB903A1B7401F075820022AE82AF83F5
:200C420020A50A903A0E7404F075820422ADB474EF5DF5B443B4E0C007C0061209E3E582D3
:200C6200D006D0076007903A0EE0F58222903A1CEEF0EFA3F0903A08E0FCA3E07D00EC2409
:200C8200F8FCED34FFFD8CF005F08006EE2EFEEF33FFD5F0F7903A18EEF0EFA3F0903A1A2D
:200CA200E4F0903A137406F0C007C0061209D07582061209551209DBD006D007903A12E0D3
:200CC200903A13F0C007C0061209D0D006D007903A12E0F582C007C006120955D006D00743
:200CE2008F82C007C006120955D006D0078E821209557582001209551209DB903A1B740100
:200D0200F0758200221209DB758200220209DB1209DB903A1CE0FEA3E0FF8E828F83A302D0
:200D22000C3E90E671E4F0903A077401F0903A0EE4F0903A087410F07480A3F0903A1274AD
:200D4200D8F0AFB474EF5FF5B443B4E0D2A57582001208CB903A137490F01209D07582908E
:200D62001209557582181208CB1208D7E582903A10F01209DB903A13749FF01209D0758233
:200D82009F120955751603903A141209161209DB903A16E0FFBF10004040EF24E7403B909C
:200DA2003A14E0903A0FF0903A15E0903A11F0903A16E024F0FF8FF005F07F017E008006E5
:200DC200EF2FFFEE33FED5F0F7903A0AEFF0EEA3F0EE3395E0A3F0A3F022903A07E4F090D2
:200DE2003A0E7407F0AFB4741F5FF5B422903A30E0F51690E740120916903A1EE0FFBF02C9
:200E02000E903A2EE0FEA3E0FF4E70030209DB22903A30E0F51490E740120B81903A1FE0A0
:200E2200FFBF020E903A2EE0FEA3E0FF4E70030209DB2275B68075B1009000011202637573
:200E4200B600903A27E4F022E5B120E00C75B68075B10090000112026375B600903A27E478
:200E6200F02290E6017480F00000000090E671E4F090E672F0903A28E5B4F0903A27747B15
:200E8200F0AFB4746F5FF5B443B440D2A675B6BC75B10890000212026375B188C2A67E00B1
:200EA2007F00E5B120E1208E028F037C007D00C3EA94FFEB94FFEC9400ED64809480500765
:200EC2000EBE00DE0F80DBE5B130E1047FC880027F64903A25EFF0903A21E4F0E4A3F0E4BD
:200EE200A3F0E4A3F0903A20E4F0220202EBE5B130E1047F1680027F0B903A25E0FEEF2EE1
:200F0200F07F00D2A6C2A60FBF400040F643B104D2A6C2A6D2A6C2A6D2A6C2A6D2A6C2A6C4
:200F220075B600903A28E0F5B4E5B130E003020EED2285B31575B3FF903A30E0FE903A210A
:200F4200E0FAA3E0FBA3E0FCA3E0FD8E0079007E007F00903A21E82AF0E93BA3F0EE3CA3C3
:200F6200F0EF3DA3F090E68BE06022FA759B40759AE775AF07903A20E0F990E67BE0F590D9
:200F8200D2A629F9C2A6DAF5903A20E9F08515B390E68BE0FFBF40005003020EF02290E6A4
:200FA2000174C2F090E6F3E4F090E6C3F090E6C1F090E6C27404F090E6C0744EF090E6F489
:200FC200E4F0759B317E317F3A8F068E9A759E607E607FE48F068E9DC0027A201202ABD076
:200FE2000290E6C6E4F090E6C77410F090E6C8E4F090E6C9F090E6CAF090E6CBF090E6CC48
:20100200E4F090E6CDF090E60B7401F00000000090E6047480F00000000090E6047406F09F
:201022000000000090E604E4F00000000090E61AE4F00000000090E61A7410F000000000F8
:2010420090E6E27401F00000000090E6CE7401F00000000090E6CFE4F00000000090E6D0C9
:20106200E4F00000000090E6D1E4F00000000090E6E474FFF000000000AFB474BF5FF5B424
:0410820075B1902292
:20006C0028015A5445580A100000000167000000000000000000000000000000000030301E
:08008C003030303030303030EC
:201086002290E683E4F090E6837420F07410F07430F07401F090E6837421F07411F07431D9
:2010A600F07412F090E6837432F07406F07426F022AF82E51724E0500375171F90E6BFE0DB
:2010C600701090E6BEE0FEC39517500690E6BEE0F51775AF078F9B85169A7E407FE7EE04F3
:2010E600F59E7E407FE70EBE00010F8F9D90E67C7403F07F00C3EF9517501190E67BE0FEC5
:2011060090E67CF090E67CE4F00F80E9E5170425E0FF90E740F090E7417403F090E68AE4FB
:20112600F090E68BEFF022903A2EE0FEA3E0FFC374409EE49F50067C407D0080048E048F93
:2011460005903A30ECF07D00903A2EEEC39CF0EF9DA3F022903A71E0FFBF310302120FBFCC
:201166003203021212BF340302121EBF3503021231BF3902802DBF3C02804DBF4202805165
:20118600BF80028012BF81028010BF8202800EBF8302800C0212500202BA0202C90202D838
:2011A6000202EB903A04E4F0903A02F0E4A3F090E6BBE0FE7F0090E6BAE0FD7C00903A0084
:2011C600ED4FF0EC4EA3F02290E6BAE0903A05F02290E6BDE0FF903A1FF0EF60012290E62A
:2011E600BBE0FE7F0090E6BAE07C004FF582EC4EF583120C3EE582605990E6A0E04401F026
:20120600903A2EE4F0E4A3F022020E35903A27E0FFBF7B0122020E64120E6490E6A5E054AA
:20122600FEF090E6F574FFF0020FA075B18843B44090E6F574FFF00000000090E601E0FF32
:2012460054F0F000000000020EF090E6A0E0FF4401F022C020C0E0C0F0C082C083C007C0CC
:2012660006C005C004C003C002C001C000C0D075D00090E6B9E0FF903A71F090E6B5740125
:20128600F090E6B9E0FF24F35003021626EFF5F0240B83F582E5F0241183F583E473BE7219
:2012A60026EF262687B8BACBD0E1E61213161316161415151515151590E6B8E0FFBF800212
:2012C600800DBF8102801EBF8202802F02162690E740E4F090E741F090E68AF090E68B74D3
:2012E60002F002162690E740E4F090E741F090E68AF090E68B7402F002162690E6BCE0FFDF
:20130600600FBF01028019BF80028005BF812F801E90E6A0E0FF53070190E740EFF0803A8A
:2013260090E6A1E0FF53070190E740EFF0802B90E6A2E0FF53070190E740EFF0801C90E61B
:20134600BCE0C31314540324A3F582E434E6F583E0FF53070190E740EFF090E741E4F0900A
:20136600E68AF090E68B7402F002162690E6B8E0FFBF0202800302162690E6BAE06003025C
:20138600162690E6BCE0FF600FBF01028015BF80028005BF8123801690E6A0E0FF54FEF03E
:2013A60002162690E6A1E0FF54FEF002162690E6A2E0FF54FEF002162690E6BCE0C3131400
:2013C600540324A3FEE434E6FF90E6BCE0C31314540324A3F582E434E6F583E0FD5305FEB4
:2013E6008E828F83EDF002162690E6B8E0FFBF0202800302162690E6BAE0600302162690D8
:20140600E6BCE0FF600FBF01028014BF80028005BF8120801490E6A0E0FF4401F08041904B
:20142600E6A1E0FF4401F0803790E6A2E0FF4401F0802D90E6BCE0C31314540324A3FEE47F
:2014460034E6FF90E6BCE0C31314540324A3F582E434E6F583E0FD4305FE8E828F83EDF044
:2014660090E6BCE05480C423541FFF90E6BCE0FE740F5E420790E683EFF074204FF002162A
:201486002690E6BBE0FFBF01028019BF02028028BF03028053BF060302156BBF0703021589
:2014A6007F0215AE7E5A7F1F8F0690E6B3EEF090E6B4745AF002162690E680E0FF30E714AA
:2014C6007E767F1F8F0690E6B3EEF090E6B47476F00216267EA67F1F8F0690E6B3EEF090A8
:2014E600E6B474A6F002162690E6BAE0FFBF0102800FBF0202801EBF0302802DBF0452803D
:201506003C7582417E417F1F8F068E167517051210B70216267582467E467F1F8F068E163B
:2015260075170C1210B702162675828A7E8A7F008F068E1675170A1210B7021626758252BF
:201546007E527F1F8F068E167517081210B70216267ED67F1F8F0690E6B3EEF090E6B47407
:20156600D6F00216267E6C7F1F8F0690E6B3EEF090E6B4746CF002162690E680E0FF30E719
:20158600147EA67F1F8F0690E6B3EEF090E6B474A6F00216267E767F1F8F0690E6B3EEF033
:2015A60090E6B47476F0807890E6A0E0FF4401F0806E806C90E740E4F090E68AF090E68BA9
:2015C6007401F0805B121087805690E740E4F090E68AF090E68B7401F08045121087804037
:2015E60090E6B8E0FFBF823890E6BCE0C31314540375F002A42473F582743A35F0F583E4C4
:20160600F0E4A3F090E685E090E740F090E684E0FF90E741F090E68AE4F090E68B7402F01F
:2016260090E6B8E0FFBF4003021877BFC00280030218A590E6BFE0FE7F0090E6BEE0FD7C22
:2016460000903A2EED4FF0EC4EA3F012112D90E6B9E0FFBF22028037BF300302180CBF3391
:2016660003021856BF38028043BF3A028067BF3B0302171ABF3D03021733BF400302175469
:20168600BF4103021791BF43030217DF02186D90E6B5E4F090E68AF090E68B7428F090E621
:2016A600B3E4F090E6B4746CF00218A590E6BBE0FE7F0090E6BAE0FD7C00903A00ED4FF0D7
:2016C600EC4EA3F090E68AE4F0120661E58290E68BF00218A5903A02E0FEA3E090E740EE01
:2016E600F0903A02E0A3E090E741F0903A04E090E742F07508007509017582A212042EAF3E
:201706008290E743EFF090E68AE4F090E68B7404F00218A590E6BAE0903A05F090E68AE4F9
:20172600F01208A7E58290E68BF00218A57508007509017582A612042EAF8290E740EFF037
:2017460090E68AE4F090E68B7401F00218A5903A0EE0FF700920A506903A0E7404F0759B3F
:20176600077E077F3A8F068E9A759E407E407FE78F068E9DC0027A081202ABD00290E68A55
:20178600E4F090E68B7408F00218A590E6BDE0FF903A1EF0EF702E90E6BBE0FE7F0090E6C8
:2017A600BAE07C004FF582EC4EF583120A51E582601390E6A0E0FF4401F0903A2EE4F0E474
:2017C600A3F00218A5120DEF90E68AE4F0903A30E0FF90E68BF00218A5759B0E7E0E7F3AE3
:2017E6008F068E9A759E407E407FE78F068E9DC0027A0A1202ABD00290E68AE4F090E68B43
:20180600740AF00218A5759B207E207F3A8F068E9A759E417E417FE78F068E9DC0027A07D5
:201826001202ABD002E5B130E00790E740E4F0800C90E7407401F075B600120E3590E748F2
:201846007401F090E68AE4F090E68B7409F0804F90E7407406F090E741E4F090E68AF090DF
:20186600E68B7402F0803890E6A0E0FF4401F0802E90E6BFE0700690E6BEE0601A903A72A6
:201886007401F090E68BE4F0AF9174EF5FF59190E65D7401F0801D12115A90E68BE4F0AFAA
:2018A6009174EF5FF59190E65D7401F090E6A0E0FF4480F0D0D0D000D001D002D003D004AE
:2018C600D005D006D007D083D082D0F0D0E0D02032C0E0C082C083C007C0D075D000AF9148
:2018E60074EF5FF59190E65D7402F0D0D0D007D083D082D0E032C0E0C082C083C007C0D0E7
:2019060075D000AF9174EF5FF59190E65D7404F0D0D0D007D083D082D0E032C0E0C082C019
:2019260083C007C0D075D000AF9174EF5FF59190E65D7408F0D0D0D007D083D082D0E032BD
:20194600C0E0C082C083C007C0D075D000AF9174EF5FF59190E65D7410F0D0D0D007D08327
:20196600D082D0E032C0E0C082C083C007C0D075D000AF9174EF5FF59190E65D7420F0D0BD
:20198600D0D007D083D082D0E032C0E0C082C083C007C0D075D000AF9174EF5FF59190E654
:2019A6005D7440F0D0D0D007D083D082D0E032C020C0E0C0F0C082C083C007C006C005C05B
:2019C60004C003C002C001C000C0D075D000C2E812112D903A71E0FFBF3003021A54BF33BA
:2019E60002806BBF3802801EBF3A028061BF3B028024BF3D028057BF40028052BF410280B7
:201A060025BF4341804890E68AE4F0120661E58290E68BF0803890E68AE4F01208A7E58237
:201A260090E68BF08028903A30E0FF6008903A0EE4F0120DEF90E68AE4F0903A30E0FF90CF
:201A4600E68BF0800990E68AE4F090E68BF0AF9174EF5FF59190E65F7401F0D2E8D0D0D0E5
:201A660000D001D002D003D004D005D006D007D083D082D0F0D0E0D02032C020C0E0C0F02D
:201A8600C082C083C007C006C005C004C003C002C001C000C0D075D000C2E8903A72E0FF05
:201AA6006020903A72E4F090E6BFE0FE7F0090E6BEE0FD7C00903A2EED4FF0EC4EA3F0126E
:201AC600115A12112D903A71E0FFBF3103021B64BF3203021B61BF3403021B64BF350302D5
:201AE6001B64BF3902802ABF3C028030BF4202803FBF8002800FBF8102800DBF8202800BE1
:201B0600BF835B800900805600805300805000804D90E68BE0F5821206958042903A05E0DD
:201B2600F51290E68BE0F51390E7401207AF802E903A30E0FF6027903A0EE4F0120E1290B4
:201B46003A0EE0FF60181209DB90E6A0E0FF4401F0903A2EE4F0E4A3F08003120F3490E62F
:201B66008BE4F0AF9174EF5FF59190E65F7402F0903A2EE0FEA3E0FF4E700890E6A0E0FF2A
:201B86004480F0D2E8D0D0D000D001D002D003D004D005D006D007D083D082D0F0D0E0D0B0
:201BA6002032C0E0C082C083C007C0D075D000AF9174EF5FF59190E65F7404F0D0D0D007D0
:201BC600D083D082D0E032C0E0C082C083C007C0D075D000AF9174EF5FF59190E65F7408DE
:201BE600F0D0D0D007D083D082D0E032C0E0C082C083C007C0D075D000AF9174EF5FF591A8
:201C060090E65F7410F0D0D0D007D083D082D0E032C0E0C082C083C007C0D075D000AF9176
:201C260074EF5FF59190E65F7420F0D0D0D007D083D082D0E032C0E0C082C083C007C0D083
:201C460075D000AF9174EF5FF59190E65F7440F0D0D0D007D083D082D0E032C0E0C082C098
:201C660083C007C0D075D000AF9174EF5FF59190E65F7480F0D0D0D007D083D082D0E03200
:201C8600751000751103903A291206C2903A29E0FFBF4324903A2AE0FFBF441C903A2BE0A4
:201CA600FFBF3014903A067401F075101075110A90008A1206C28005903A06E4F07F00EF37
:201CC600248AF582E43400F583E0FEBE30550FBF0A0040EB7510FB751105903A291206C24D
:201CE6007F007E00EE2429F582E4343AF583E0FDEF248AFBE43400FCEDC4540F901FDA93AC
:201D0600FA8B828C83F00FEF248AFBE43400FC740F5D901FDA93FD8B828C83F00F0EBE0517
:201D26000040C12290E680E04408F090E6007412F0900002120263AF8E74F85FF58E120EC8
:201D46004AC2AFC2E89000437402F09000447401F090004574B8F090E668E04408F090012A
:201D6600007402F07E597F128F05900101EDF0900102EEF09001047402F07ED77F188F05A0
:201D8600900105EDF0900106EEF09001087402F07EFC7F188F05900109EDF090010AEEF0C1
:201DA60090010C7402F07E217F198F0590010DEDF090010EEEF09001107402F07E467F19F4
:201DC6008F05900111EDF0900112EEF09001147402F07E6B7F198F05900115EDF09001161F
:201DE600EEF09001187402F07E907F198F05900119EDF090011AEEF09001207402F07EB55C
:201E06007F198F05900121EDF0900122EEF09001247402F07E807F1A8F05900125EDF09007
:201E26000126EEF09001287402F07EA87F1B8F05900129EDF090012AEEF090012C7402F0D1
:201E46007ECD7F1B8F0590012DEDF090012EEEF09001307402F07EF27F1B8F05900131ED57
:201E6600F0900132EEF09001347402F07E177F1C8F05900135EDF0900136EEF09001387457
:201E860002F07E3C7F1C8F05900139EDF090013AEEF090013C7402F07E617F1C8F0590013F
:201EA6003DEDF090013EEEF0AF9174EF5FF59190E65D747FF090E65CE0FF447FF090E65FDE
:201EC60074FFF090E65E74FFF0D2E8D2AF90E61174A0F00000000090E61074A0F000000012
:201EE6000090E61274E0F00000000090E613E4F00000000090E61474A0F00000000090E6AF
:201F060015E4F000000000120D24903A07E0FF70099000FA120263120D24121C8690E68078
:171F2600E04482F090000A12026390E680E054F7F022121D2A80FEF3
:201F41005A544558007472616E736365697665720064656661756C740012010002FFFFFF98
:201F6100401A2200010000010203010A060002FFFFFF40010009022E00010104C03209044E
:201F8100000004FFFFFF0007058102000200070501020002000705820200020007050602F7
:201FA100000200000009022E00010104C0320904000004FFFFFF0007058102400000070504
:201FC10001024000000705820240000007050602400000000004030000303132333435362D
:201FE1003738394142434445460000000001880101010101070207020202020200200000DB
:202001000000000020003600000000003F0201900101010107020207020202020020000059
:172021000000000020000036000000003FFF00000000000000000014
:06023500E478FFF6D8FD9D
:20021300794DE94400601B7A01901FEB782E75923AE493F2A308B800020592D9F4DAF275EE
:0202330092FF38
:20023B007800E84400600A790075923AE4F309D8FC782EE84400600C7901903A00E4F0A32E
:04025B00D8FCD9FAF8
:0D020600758120121F3DE582600302020396
:041F3D007582002287
:00000001FF
